:020000020000FC
:100000000C9441004F93DF93CF9349B1487009F0AE
:100010004FEF4993CF91DF914F9108950F931F9325
:100020002F933F93DF93CF931881CA952881CA9568
:1000300038810000000000001A95D9F72A95C9F709
:100040003A95B9F7CF91DF913F912F911F910F9181
:1000500008950F931F932F933F93DF93CF931881AE
:100060002A913A91120F322F212F132F33273993D0
:1000700029931993CF91DF913F912F911F910F9168
:1000800008950FEF0DBFC02F00E10EBFD02F0FEF6F
:1000900004B90BB903950AB90BE010E021E030E098
:1000A0005FEF6FEF70E41F932F933F93D2DF3F9189
:1000B0002F911F91422F45B98F93A4DF8F918F3FCE
:1000C00011F08FEF85B95F936F937F93A7DF7F91D7
:0A00D0006F915F910A9539F7DFCFB9
:00000001FF
