:020000020000FC
:10080000DF93CF930F920F920F920F92CDB7DEB777
:100810009A83898389819A8199234CF489819A8169
:1008200022273327281B390B3C832B8304C0898163
:100830009A819C838B838B819C810F900F900F906A
:100840000F90CF91DF910895DF93CF93CDB7DEB7AF
:10085000ACE7B0E0ECE7F0E0808180648C93AAE73D
:10086000B0E0EAE7F0E0808180688C93AAE7B0E02E
:10087000EAE7F0E0808188608C93AAE7B0E0EAE7DD
:10088000F0E0808186608C93EEE7F0E08FEF80836C
:10089000A1E9B0E0E1E9F0E0808188608C93E8E9CB
:1008A000F0E088E09DE391838083A1E7B0E0E1E799
:1008B000F0E0808182608C93E4E9F0E011821082A4
:1008C000A1E9B0E0E1E9F0E0808183608C93A4E2EB
:1008D000B0E0E4E2F0E08081806E8C93A5E2B0E0CD
:1008E000E5E2F0E080818F718C93A0E8B0E0E0E871
:1008F000F0E0808181608C93A1E8B0E0E1E8F0E075
:10090000808188608C93A0E8B0E0E0E8F0E080812E
:10091000886A8C9328E830E0AAE8B0E0ECE8F0E0E0
:100920008FEF90E0918380838081918111969C93D9
:100930008E938D919C91F90191838083A1E8B0E021
:10094000E1E8F0E0808181608C93A1E0B1E0E1E03A
:10095000F1E0808188638C93A2E0B1E0E2E0F1E015
:100960008081877C8C93A0EAB0E0E0EAF0E08081AF
:1009700081608C93A1EAB0E0E1EAF0E080818860D8
:100980008C93A0EAB0E0E0EAF0E08081886A8C9382
:1009900028EA30E0AAEAB0E0ECEAF0E08FEF90E07D
:1009A000918380838081918111969C938E938D9108
:1009B0009C91F90191838083A1EAB0E0E1EAF0E043
:1009C000808181608C93AAE0B1E0EAE0F1E080816F
:1009D00088618C93ABE0B1E0EBE0F1E08081877E51
:1009E0008C93A0E2B1E0E0E2F1E0808181608C9341
:1009F000A1E2B1E0E1E2F1E0808188608C93A0E2C5
:100A0000B1E0E0E2F1E08081806A8C93A8E2B1E09D
:100A1000EAE2F1E08FEF90E0918380838081918121
:100A200011969C938E93A1E2B1E0E1E2F1E0808126
:100A300081608C93CF91DF910895DF93CF930F92D4
:100A40000F920F92CDB7DEB789838981883068F421
:100A50008981882F90E0880F991FFC01E45FFC4F8B
:100A6000808191819B838A8304C08FEF9FEF9B835A
:100A70008A838A819B810F900F900F90CF91DF9195
:100A80000895DF93CF930F920F920F92CDB7DEB7F9
:100A900089838981883068F48981882F90E0880F64
:100AA000991FFC01E45FFC4F808191819B838A83C5
:100AB00004C08FEF9FEF9B838A838A819B810F9075
:100AC0000F900F90CF91DF910895DF93CF930F9206
:100AD0000F920F92CDB7DEB789838981883068F491
:100AE0008981882F90E0880F991FFC01E45FFC4FFB
:100AF000808191819B838A8304C08FEF9FEF9B83CA
:100B00008A838A819B810F900F900F90CF91DF9104
:100B10000895DF93CF930F920F920F920F920F923F
:100B2000CDB7DEB78A836B838B81813809F467C1C7
:100B30008B818E3709F463C18B81992787FD90954E
:100B40000E940004880F809589838A81882F90E015
:100B5000FC01EC5FFC4F8081882339F08A81882F6B
:100B600090E0FC01EC5FFC4F10828A81282F30E07E
:100B70003D832C838C819D818130910509F45CC07B
:100B80002C813D81223031052CF48C819D81009790
:100B900071F035C12C813D812230310509F4A6C0A8
:100BA0008C819D818330910509F4E5C028C18B813A
:100BB0001816ACF4E8E8F0E08981882F90E0918382
:100BC0008083EAE8F0E08FEF90E091838083A0E8F3
:100BD000B0E0E0E8F0E08081806A8C9310C18B8106
:100BE0008823A9F4A8E8B0E0EAE8F0E08FEF90E00D
:100BF000918380838081918111969C938E93A0E84C
:100C0000B0E0E0E8F0E08081806A8C93F8C0EAE828
:100C1000F0E08981882F90E091838083E8E8F0E01C
:100C20008FEF90E091838083A0E8B0E0E0E8F0E00F
:100C30008081806A8C93E3C08B811816E4F4ECE821
:100C4000F0E08981882F90E091838083E8EAF0E0EA
:100C50008FEF90E091838083A0E8B0E0E0E8F0E0DF
:100C6000808188608C93A0EAB0E0E0EAF0E08081C7
:100C700080688C93C4C08B818823E1F4ACE8B0E039
:100C8000E8EAF0E08FEF90E09183808380819181AA
:100C900011969C938E93A0E8B0E0E0E8F0E08081AC
:100CA00088608C93A0EAB0E0E0EAF0E080818068A0
:100CB0008C93A5C0E8EAF0E08981882F90E09183C9
:100CC0008083ECE8F0E08FEF90E091838083A0E8F0
:100CD000B0E0E0E8F0E0808188608C93A0EAB0E0CA
:100CE000E0EAF0E0808180688C9389C08B811816DF
:100CF000ACF4EAEAF0E08981882F90E09183808368
:100D0000ECEAF0E08FEF90E091838083A0EAB0E01E
:100D1000E0EAF0E0808188628C9371C08B81882347
:100D2000A9F4AAEAB0E0ECEAF0E08FEF90E091835A
:100D300080838081918111969C938E93A0EAB0E08C
:100D4000E0EAF0E0808188628C9359C0ECEAF0E040
:100D50008981882F90E091838083EAEAF0E08FEF29
:100D600090E091838083A0EAB0E0E0EAF0E0808147
:100D700088628C9344C08B811816ACF4E8E2F1E0F1
:100D80008981882F90E091838083EAE2F1E08FEF00
:100D900090E091838083A0E2B1E0E0E2F1E0808125
:100DA00088688C932CC08B818823A9F4A8E2B1E0D9
:100DB000EAE2F1E08FEF90E091838083808191817E
:100DC00011969C938E93A0E2B1E0E0E2F1E0808185
:100DD000806A8C9314C0EAE2F1E08981882F90E068
:100DE00091838083E8E2F1E08FEF90E0918380834C
:100DF000A0E2B1E0E0E2F1E0808188688C930F909E
:100E00000F900F900F900F90CF91DF910895DF9387
:100E1000CF930F920F920F92CDB7DEB7898389815E
:100E2000882F90E0FC01EC5FFC4F8081882309F063
:100E30004DC08981882F90E0FC01EC5FFC4F81E080
:100E400080838981282F30E03B832A838A819B819C
:100E500081309105E9F02A813B81223031052CF463
:100E60008A819B81009761F031C02A813B812230C9
:100E70003105E9F08A819B818330910501F126C01B
:100E8000A0E8B0E0E0E8F0E080818F758C931EC0B0
:100E9000A0E8B0E0E0E8F0E08081877F8C93A0EAF2
:100EA000B0E0E0EAF0E080818F778C930FC0A0EA99
:100EB000B0E0E0EAF0E08081877D8C9307C0A0E29B
:100EC000B1E0E0E2F1E080818F758C930F900F909C
:100ED0000F90CF91DF9108951F920F920FB60F924E
:100EE00000905B000F9211248F939F93AF93BF9359
:100EF000EF93FF93DF93CF93CDB7DEB7E0E3F0E05E
:100F00001082E1E3F0E01082ACE7B0E0ECE7F0E063
:100F10008081982F987F80910003890F8C93AAE796
:100F2000B0E0EAE7F0E0808180648C93CF91DF91BC
:100F3000FF91EF91BF91AF919F918F910F90009290
:100F40005B000F900FBE0F901F9018951F920F928D
:100F50000FB60F9200905B000F9211242F933F93D6
:100F60008F939F93AF93BF93EF93FF93DF93CF93B1
:100F7000CDB7DEB780910003882F90E0E8E7F0E07E
:100F800020813181880F991FFC01E45FFC4F318380
:100F90002083809100038730C0F4ACE7B0E0ECE739
:100FA000F0E08081982F987F809100038F5F80937D
:100FB000000380910003890F8C93AAE7B0E0EAE771
:100FC000F0E0808180648C930AC0E0E3F0E08FEF72
:100FD0008083E1E3F0E08FEF808310920003CF91F4
:100FE000DF91FF91EF91BF91AF919F918F913F91D1
:100FF0002F910F9000925B000F900FBE0F901F90EB
:02100000189541
:100000000C94300318950000189500001895000016
:10001000189500001895000018950000189500002C
:10002000189500001895000018950000189500001C
:10003000189500001895000018950000189500000C
:1000400018950000189500001895000018950000FC
:1000500018950000189500001895000018950000EC
:1000600018950000189500001895000018950000DC
:10007000189500000C94A60718950000189500002C
:100080000C946C0718950000189500001895000056
:1000900018950000189500001895000018950000AC
:1000A000189500001895000018950000189500009C
:1000B000189500001895000018950000189500008C
:1000C000189500001895000018950000189500007C
:1000D000189500001895000018950000189500006C
:1000E000189500000F931F932F933F93AF93BF93E7
:1000F000ADB7BEB71A960C91222714E8312F2A9576
:10010000F1F71A95E1F7132F0A95C9F7BF91AF914F
:100110003F912F911F910F9108950FEF0DBF01E2B5
:100120000EBF0FEF04B90FEF07B90FEF05B908B90C
:1001300008E00F930E9472000F9100E005B908B922
:0E01400002E00F930E9472000F910C94950044
:1006000061206D65657373616765206F6E20746826
:100610006973206C696E65000B16212C37424D58AA
:10062000636F7A85909BA6B10F931F932F933F938F
:1006300020E100E010E03591031F08F413952A959E
:10064000D1F70695069506950695110F110F110F16
:10065000110F012B802F3F912F911F910F91089522
:100660000E942404F6E0E8E100E180E00A95E9F761
:100670000E9414038032B0F78EE382B980E00E94BA
:100680001D058F3F78F760E880E00E94890502E34E
:080690000F930F910C9432034B
:00000001FF
