:100000000C9451050C9470050C9470050C947005BB
:100010000C9470050C9470050C9470050C9470058C
:100020000C9470050C9470050C9470050C9470057C
:100030000C9470050C9470050C94CF050C9470050D
:100040000C9470050C9470050C9470050C9470055C
:100050000C9470050C9470050C9470050C9470054C
:100060000C9470050C9470050C9470050C9470053C
:100070000C9470050C94FE050C948E050C94700580
:100080000C9470050C9470050C9470050000000031
:100090000000000000000000000000000000000060
:1000A00000000000000000007C00FF33FF337C00F4
:1000B0000000000000000000000000003C003C00C8
:1000C000000000003C003C000000000000000002B6
:1000D000101E901FF0037E021E1E901FF0037E0272
:1000E0001E00100000007804FC0CCC0CFF3FFF3F0A
:1000F000CC0CCC0F88070000000000303838381CCA
:10010000380E00078003C001E038703838381C0012
:100110000000001FB83FFC31C621E2373E1E1C1C08
:1001200000360022000000000000000027003F0011
:100130001F000000000000000000000000000000A0
:10014000F003FC0FFE1F0738012001200000000013
:10015000000000000000012001200738FE1FFC0FF6
:10016000F0030000000000000000980CB80EE0034F
:10017000F80FF80FE003B80E980C00000000000024
:10018000800180018001F00FF00F8001800180016B
:100190000000000000000000000000B800F8007837
:1001A000000000000000000000000000800180014D
:1001B0008001800180018001800180010000000039
:1001C0000000000000000038003800380000000087
:1001D0000000000000000018001C000E0007800353
:1001E000C001E000700038001C000E00F807FE1F80
:1001F000061E03338331C330633033301E18FE1FB5
:10020000F807000000000C300C300E30FF3FFF3FBD
:1002100000300030003000001C301E38073C033E28
:1002200003378333C331E33077303E301C300C0C5E
:100230000E1C0738C330C330C330C330C330E73976
:100240007E1F3C0EC003E003700338031C030E0343
:100250000703FF3FFF3F000300033F0C7F1C633891
:1002600063306330633063306330E338C31F830F20
:10027000C00FF01FF839DC30CE30C730C330C33088
:10028000C339801F000F0300030003000330033C49
:10029000030FC303F3003F000F000300000FBC1F58
:1002A000FE39E730C330C330C330E730FE39BC1FFE
:1002B000000F3C007E00E730C330C330C338C31C9E
:1002C000C30EE707FE03FC00000000000000701CE6
:1002D000701C701C00000000000000000000000006
:1002E00000000000709C70FC707C000000000000AA
:1002F000000000000000C000E001F00338071C0E01
:100300000E1C073803300000000000006006600685
:100310006006600660066006600660066006000013
:100320000000033007380E1C1C0E3807F003E001F4
:10033000C000000000001C001E00070003008337FF
:10034000C337E30077003E001C000000F80FFE1FDB
:100350000718F333FB371B36FB37FB370736FE0333
:10036000F8010038003FE007FC061F061F06FC06E8
:10037000E007003F00380000FF3FFF3FC330C330BD
:10038000C330C330E730FE39BC1F000F0000F0035C
:10039000FC0F0E1C073803300330033007380E1CE7
:1003A0000C0C0000FF3FFF3F0330033003300330ED
:1003B00007380E1CFC0FF0030000FF3FFF3FC33067
:1003C000C330C330C330C330C33003300330000008
:1003D000FF3FFF3FC300C300C300C300C300C3000F
:1003E000030003000000F003FC0F0E1C073803306D
:1003F000C330C330C330C73FC63F0000FF3FFF3F9D
:10040000C000C000C000C000C000C000FF3FFF3FF0
:1004100000000000000003300330FF3FFF3F0330C7
:100420000330000000000000000E001E0038003005
:100430000030003000300038FF1FFF070000FF3F92
:10044000FF3FC000E001F00338071C0E0E1C073808
:1004500003300000FF3FFF3F00300030003000302D
:1004600000300030003000300000FF3FFF3F1E0032
:100470007800E001E00178001E00FF3FFF3F000030
:10048000FF3FFF3F0E003800F000C0030007001CD4
:10049000FF3FFF3F0000F003FC0F0E1C0738033046
:1004A000033007380E1CFC0FF0030000FF3FFF3F36
:1004B00083018301830183018301C701FE007C0066
:1004C0000000F003FC0F0E1C073803300336073E14
:1004D0000E1CFC3FF0330000FF3FFF3F8301830110
:1004E00083038307830FC71DFE387C3000003C0C5C
:1004F0007E1CE738C330C330C330C330C7398E1FCA
:100500000C0F00000000030003000300FF3FFF3F4B
:1005100003000300030000000000FF07FF1F003876
:1005200000300030003000300038FF1FFF070000AF
:1005300007003F00F801C00F003E003EC00FF80169
:100540003F0007000000FF3FFF3F001C0006800344
:1005500080030006001CFF3FFF3F000003300F3CFC
:100560001C0E3003E001E00130031C0E0F3C033091
:10057000000003000F003C00F000C03FC03FF0004F
:100580003C000F00030000000330033C033E033334
:10059000C331E33033301F300F3003300000000030
:1005A0000000FF3FFF3F0330033003300330000003
:1005B000000000000E001C0038007000E000C001C8
:1005C00080030007000E001C00180000000003302C
:1005D000033003300330FF3FFF3F00000000000006
:1005E0006000700038001C000E0007000E001C00A8
:1005F00038007000600000C000C000C000C000C033
:1006000000C000C000C000C000C000C0000000006A
:10061000000000003E007E004E00000000000000D0
:100620000000001C403E6033603360336033603351
:100630006033E03FC03F0000FF3FFF3FC03060300D
:10064000603060306030E038C01F800F0000800FE5
:10065000C01FE03860306030603060306030C018FB
:1006600080080000800FC01FE038603060306030CC
:10067000E030C030FF3FFF3F0000800FC01FE03B75
:1006800060336033603360336033C0138001000037
:10069000C000C000FC3FFE3FC700C300C300030012
:1006A0000000000000008003C0C7E0CE60CC60CC3A
:1006B00060CC60CC60E6E07FE03F0000FF3FFF3FA2
:1006C000C000600060006000E000C03F803F0000AC
:1006D00000000000000000306030EC3FEC3F0030D4
:1006E000003000000000000000000000006000E09A
:1006F00000C060C0ECFFEC7F0000000000000000C4
:10070000FF3FFF3F00038007C00FE01C6038003050
:10071000000000000000000000300330FF3FFF3FFA
:1007200000300030000000000000E03FC03FE0006B
:10073000E000C03FC03FE000E000C03F803F00005D
:100740000000E03FE03F6000600060006000E0000B
:10075000C03F803F0000800FC01FE0386030603035
:1007600060306030E038C01F800F0000E0FFE0FF25
:10077000600C6018601860186018E01CC00F8007DB
:1007800000008007C00FE01C601860186018601837
:10079000600CE0FFE0FF00000000E03FE03FC00031
:1007A0006000600060006000E000C0000000C01158
:1007B000E0336033603360336033603F401E0000DD
:1007C0000000000060006000FE1FFE3F60306030EF
:1007D00060300030000000000000E00FE01F003833
:1007E00000300030003000300018E03FE03F0000F3
:1007F0006000E0018007001E00380038001E8007FE
:10080000E00160000000E007E01F0038001CE00F7E
:10081000E00F001C0038E01FE00700006030E03807
:10082000C01D800F0007800FC01DE0386030000041
:10083000000000006000E08180E7007E001E80076D
:10084000E00160000000000060306038603C60360D
:100850006033E031E0306030203000000000000004
:100860008000C001FC1F7E3F0770036003600360CF
:10087000000000000000000000000000BF3FBF3F7C
:1008800000000000000000000000000003600360A2
:10089000036007707E3FFC1FC00180000000000065
:1008A000100018000C0004000C00180010001800C4
:1008B0000C0004000000000018003C006600660008
:1008C0003C001800000000000000000000000000D4
:1008D0000000002F00000007000700147F147F14A1
:1008E000242A7F2A12C4C8102646364955225000B1
:1008F00005030000001C2241000041221C001408D6
:100900003E081408083E080800005030001010107F
:100910001010006060000020100804023E5149459C
:100920003E00427F400042615149462141454B31E2
:100930001814127F1027454545393C4A4949300172
:10094000710905033649494936064949291E0036C9
:10095000360000005636000008142241001414141A
:100960001414004122140802015109063249595158
:100970003E7E1111117E7F494949363E4141412257
:100980007F4141221C7F494949417F090909013EB4
:100990004149497A7F0808087F00417F4100204093
:1009A000413F017F081422417F404040407F020CBC
:1009B000027F7F0408107F3E4141413E7F090909C3
:1009C000063E4151215E7F09192946464949493170
:1009D00001017F01013F4040403F1F2040201F3F59
:1009E0004038403F631408146307087008076151DA
:1009F000494543007F414100552A552A5500414150
:100A00007F00040201020440404040400001020413
:100A10000020545454787F48444438384444442097
:100A2000384444487F3854545418087E0901020C55
:100A30005252523E7F0804047800447D400020401A
:100A4000443D007F1028440000417F40007C041892
:100A500004787C0804047838444444387C14141422
:100A600008081414187C7C080404084854545420C2
:100A7000043F4440203C4040207C1C2040201C3C43
:100A80004030403C44281028440C5050503C4464B2
:100A9000544C44183C3C7FFFFF00000000FFFF7EE9
:100AA0003C1811241FBECFEFD0E1DEBFCDBF11E057
:100AB000A0E0B1E0E2EBFAE100E00BBF02C007907A
:100AC0000D92A437B107D9F713E0A4E7B1E001C054
:100AD0001D92A23BB107E1F70E949C060C94570DB2
:100AE0000C9400002FB7F89490919602892390916E
:100AF00096029827909396022FBF089583E281BBB8
:100B00008CED82BB84E087BF8EB582608EBD81B3E1
:100B1000877B81BB82B3886482BB08951F920F924A
:100B20000FB60F920BB60F9211242F933F938F9312
:100B30009F93EF93FF9390919C00923041F08091AE
:100B4000A702882321F481E0809374011BC02091C7
:100B5000A702213011F490939702E22FF0E0E755BD
:100B6000FD4F90832F5F2093A70230E08091970282
:100B700090E00196821793072CF41092A70281E06F
:100B80008093A602FF91EF919F918F913F912F91BA
:100B90000F900BBE0F900FBE0F901F9018951F92D5
:100BA0000F920FB60F9211242F933F938F939F9321
:100BB00020B3309176012095232780916401822310
:100BC000809580936401909163019223982790937C
:100BD000630182238923982F932790937601209194
:100BE00096029823922B909396029F918F913F911A
:100BF0002F910F900FBE0F901F9018951F920F927C
:100C00000FB60F9211242F933F936F937F938F937F
:100C10009F938091A8023091A803831719F481E073
:100C2000809374013093A80220917501822F6AE0AD
:100C30000E94E40C992329F0109274013F5F3093D5
:100C4000A8032F5F209375019F918F917F916F91E2
:100C50003F912F910F900FBE0F901F901895ABE80A
:100C6000B0E01C92EAE8F0E0108210928C008081E3
:100C7000877E80838C918C7F8C938081856080833C
:100C8000EDE7F0E0808184608083089515BC85B530
:100C9000886085BD85B58F7C85BD8FEF83BD85B5AB
:100CA000856085BD089588E00E947205882341F023
:100CB00080E060E040E051E00E94910B81E0089507
:100CC00080E40E947205882341F080E060E042E009
:100CD00051E00E94910B82E0089584E00E94720529
:100CE000882341F080E060E044E051E00E94910BF5
:100CF00084E0089580E10E947205882341F080E03D
:100D000060E046E051E00E94910B88E0089580E8A1
:100D10000E947205882341F080E060E048E051E0E5
:100D20000E94910B80E1089580E060E04AE051E08C
:100D30000E94910B80E00895AF92BF92CF92DF9214
:100D4000EF92FF920F931F93DF93CF93CDB7DEB750
:100D50002E970FB6F894DEBF0FBECDBFF89460E0BB
:100D600076E980E090E00E94AC0760E875E280E000
:100D700090E00E94C80782B1886282B90E94BE0AD0
:100D80000E947E050E9446060E942F06789480ED00
:100D900097E020E731E0F9013197F1F70197D9F7B2
:100DA000DE011196E5E6F1E08EE001900D928150B2
:100DB000E1F71092A702109297021092A6026E011C
:100DC0000894C11CD11C80E7A82E81E0B82E0E9497
:100DD0005306182F8CE091E00E949307812F90E03A
:100DE0000E946A0983E191E00E949307C60167E0CF
:100DF0000E94B90C7C0100E010E0F601E00FF11F49
:100E0000808191810E946A0986E191E00E949307A6
:100E1000F701E00FF11F808191810E946A0983E14F
:100E200091E00E9493070E5F1F4F0E30110529F7C6
:100E300083E191E00E94930789859A850E942008AA
:100E4000AC0181E062E00E94910BF7018085918501
:100E50000E942008AC0181E064E00E94910B809127
:100E60007401882341F00E94A20A80E060E049E119
:100E700051E00E94800B80E29EE4F5013197F1F78A
:100E8000019709F4A4CFF9CF01C000005F9BFDCF0B
:100E90008CB1089501C0000080919B0087FFFBCFBB
:100EA00080919C00089501C000005D9BFDCF8CB92E
:100EB0000895982F01C0000080919B0085FFFBCF13
:100EC00090939C000895AC0120E030E0FA01E20F1D
:100ED000F31FE08101C0000080919B0085FFFBCFE4
:100EE000E0939C002F5F3F4F2E30310579F78091C2
:100EF000A602882321F4000000000000FCCF10921D
:100F0000A60220E030E0F901E958FE4FD901A755CB
:100F1000BD4F8C9180832F5F3F4F2E30310599F765
:100F200087E791E00895FC0105C000005D9BFDCFBF
:100F30008CB9319680818823C9F70895FC0108C0D7
:100F4000000080919B0085FFFBCF90939C00319621
:100F500090819923B1F708959B01AC0184E0220FA1
:100F6000331F441F551F8A95D1F760E070E081EE72
:100F700090E00E94F00C21501092900029B98AB1A3
:100F800088618AB9E5E9F0E0808186608083089510
:100F90009B01AC0194E0220F331F441F551F9A950B
:100FA000D1F760E070E081EE90E00E94F00C2150FB
:100FB0001092980020939900EAE9F0E0808188611E
:100FC0008083808180688083EDE9F0E080818660A5
:100FD000808380818062808380818F7E8083808116
:100FE000877F808380818F7B80830895EF92FF923B
:100FF0000F931F93CF93DF938C017B018BE591E0DF
:101000000E949307C8010E949307C0E0D0E0F70157
:10101000EC0FFD1F80810E94A5098EE591E00E94E2
:1010200093072196CE30D10591F78BE591E00E9490
:101030009307DF91CF911F910F91FF90EF9008954B
:10104000DF92EF92FF920F931F93AC0197FF07C0BF
:101050008DE280939101509541955F4F03C08BE2E3
:10106000809391017A01B4E0F594E794BA95E1F7A1
:101070008FE0E822E52FE295EF70F0E0852F9927C9
:1010800087FD9A958F70082F10E0C8018E0F9F1F63
:101090008E0D911D9C01220F331F280F391F220F27
:1010A000331F5FE0D52ED422D20E6DECD69ED00138
:1010B0001124A0E2BA02A12DBB0B1124A801440FF8
:1010C000551F440F551F400F511FCF0123E0880FBC
:1010D000991F2A95E1F78E0F9F1F480F4E0D4A0F5B
:1010E000469FB001112460E27602612D770B112436
:1010F000000F111F060F8AE1089F90011124232F72
:10110000330F330BEE0FFF1FEE0FFF1F122F1E0FBB
:10111000189FC0011124892F990F990B805D80932E
:1011200092018053105DE6EFFFEF8E9F802D11241A
:10113000810F80939301005D2E9F202D1124200F9D
:1011400020939401405D6E9F602D1124640F609385
:10115000950180E3D80EAE9FA02D1124AD0DA09374
:101160009601E5E0F0E00AC02F5F3F4F11968C91A9
:1011700011978D932E173F07BCF331978091920101
:10118000803341F4E130F10529F0A2E9B1E021E03A
:1011900030E0EACFEF56FE4F118281E991E01F91D6
:1011A0000F91FF90EF90DF900895FC01808190E017
:1011B0008134910518F0DC01D79702C0DC01D0978B
:1011C0008181282F30E0813418F02753304002C04D
:1011D000205330408281482F50E0813418F047532B
:1011E000504002C0405350408381682F70E08134EA
:1011F00018F0CB01C79702C0CB01C097BA2FAA271E
:10120000B295B07F322F22272A0F3B1F64E0440F94
:10121000551F6A95E1F7240F351F280F391FC901A3
:10122000089520E030E001C0EC93FC01E20FF31FD1
:10123000E081D901A957BE4F2F5F3F4FEE23A1F7A1
:101240006C93F901E957FE4F4083F901E857FE4FCF
:1012500080E28083118287E891E00895DF93CF9345
:10126000CDB7DEB728970FB6F894DEBF0FBECDBF5F
:10127000292F22952F702A3018F0322F395C02C0A6
:10128000322F305D9F709A3010F0995C01C0905DF4
:10129000282F22952F702A3010F0295C01C0205D84
:1012A0008F708A3010F0895C01C0805D39839A8329
:1012B0002B838C838AE38D831E82CE0101960E944C
:1012C000930728960FB6F894DEBF0FBECDBFCF911F
:1012D000DF910895DF93CF93CDB7DEB728970FB690
:1012E000F894DEBF0FBECDBF292F22952F702A3074
:1012F00018F0322F395C02C0322F305D9F709A3067
:1013000010F0995C01C0905D282F22952F702A3033
:1013100010F0295C01C0205D8F708A3010F0895C6C
:1013200001C0805D39839A832B838C831D821E824A
:10133000CE0101960E94930728960FB6F894DEBF5F
:101340000FBECDBFCF91DF910895DF93CF93CDB77F
:10135000DEB72A970FB6F894DEBF0FBECDBF90E080
:10136000BE016F5F7F4F40E150E00E94120D8A8105
:10137000882329F41B8289818A8380E38983CE01B3
:1013800001960E9493072A960FB6F894DEBF0FBE0F
:10139000CDBFCF91DF9108950F931F93CF93DF932C
:1013A0009C01FC0101C0319680818823E1F70E2F5A
:1013B000021BE90110E004C089910E94A5091F5F8A
:1013C0001017D0F3DF91CF911F910F910895AF9235
:1013D000BF92DF92EF92FF920F931F93DF93CF9311
:1013E000CDB7DEB77C01ADB6BEB6FC0101C031960B
:1013F00080818823E1F7CF018E199F09D82E87FFBE
:1014000002C0FFE7DF2E2DB73EB72A5030400FB69F
:10141000F8943EBF0FBE2DBF0DB71EB70F5F1F4F15
:10142000862F90E0B80140E150E00E94120DD801F3
:1014300011968C911197882349F412961C92129759
:101440008C9111968C93119780E38C938D2D845FF2
:10145000EDB7FEB7E81BF1090FB6F894FEBF0FBE5B
:10146000EDBF4DB75EB74F5F5F4FD70120E006C0BD
:10147000FA01E20FF11D8D9180832F5F2D15C0F3CE
:10148000FA01ED0DF11D80E28083D8018C918183FA
:1014900011968C9182838AE083838DE08483158208
:1014A000CA010E9493070FB6F894BEBE0FBEADBE30
:1014B000CF91DF911F910F91FF90EF90DF90BF9040
:1014C000AF9008950F931F93CF93DF93C0E0D0E0C8
:1014D000082F10E0C8010C2E02C0880F991F0A9433
:1014E000E2F787FD03C080E390E002C081E390E073
:1014F0000E9453072196C830D10561F780E691E03C
:101500000E949307DF91CF911F910F91089520EDD5
:1015100037E004C0F9013197F1F701970097D1F74F
:1015200008958FB9779BFECF8FB10895C098662339
:1015300011F4C59801C0C59A8FB9779BFECF8FB1C2
:10154000C09A0895CF93DF9380E860E00E94960AE6
:1015500080E460E00E94960A80E860E00E94960ABB
:10156000C0E0D0E080E061E00E94960A219681E030
:10157000C83FD807B9F7DF91CF91089587B38F633C
:1015800087BB8DB183658DB97098C49880ED97E065
:10159000FC013197F1F7C49AC098FC013197F1F73B
:1015A000C09A0197F1F781E260E00E94960A83EC0D
:1015B00060E00E94960A84E060E00E94960A80E162
:1015C00060E00E94960A80E260E00E94960A0E9413
:1015D000A20A8CE060E00E94960AC098C39A08951F
:1015E0009C0181E0243A38074CF085E090E090932C
:1015F000B1038093B003245A314035C081E02035D7
:1016000038074CF084E090E09093B1038093B003EE
:101610002055314028C02C3F31054CF083E090E04C
:101620009093B1038093B0032C5F30401CC0283AE4
:1016300031054CF082E090E09093B1038093B003C9
:10164000285A304010C0243531054CF081E090E03C
:101650009093B1038093B0032455304004C010929E
:10166000B1031092B0033093AD032093AC0380918B
:10167000B003806460E00E94960A8091AC038068A9
:1016800060E00E94960A08950F931F93CF93DF9313
:1016900095E0899FC0011124EC01C45DD74F8C01F6
:1016A0000B5910400453174FFE01849161E00E94D2
:1016B000960A2196C017D107B9F780E061E00E9431
:1016C000960ADF91CF911F910F910895CF93DF93E9
:1016D000EC0103C021960E94440B88818823D1F736
:1016E000DF91CF9108951F93162F806860E00E94CC
:1016F000960A812F806460E00E94960A1F910895E7
:10170000CF93DF93EA0190E070E00E94730B03C077
:1017100021960E94440B88818823D1F7DF91CF91D5
:1017200008957F928F929F92AF92BF92CF92DF9255
:10173000EF92FF920F931F93CF93DF93942E852EFA
:1017400096E0899F50011124C62EDD24C501B60103
:101750000E94730B292D382DC9017C013BE0732EAB
:101760001BC0879DC0011124880F991FEC01C45331
:10177000D2408C010E511240FE01849161E00E9422
:10178000960A2296C017D107B9F70894E11CF11CFC
:1017900080E061E00E94960AF7018081882309F7C2
:1017A0000894C11CD11CC501B6010E94730B892D80
:1017B000982D9C01790106E116C0809FE00111245B
:1017C000C353D24010E0FE01849161E00E94960A6A
:1017D0001F5F22961B30B9F70894E11CF11C80E0D2
:1017E00061E00E94960AF7018081882331F7DF913A
:1017F000CF911F910F91FF90EF90DF90CF90BF900E
:10180000AF909F908F907F9008950F931F93CF93E9
:10181000DF938C0180E860E00E94960A80E460E03B
:101820000E94960A80E860E00E94960AC0E0D0E03C
:10183000F80181918F0161E00E94960A2196F1E002
:10184000C83FDF07A9F7DF91CF911F910F9108954E
:101850000AC020E030E000002F5F3F4F46E0263610
:101860003407C9F701970097A1F70895CF93DF9345
:10187000C0E0D0E0CE0160E070E00E94730B81E038
:1018800061E00E94960A2196C435D10599F7C0E01F
:10189000D0E0CE0165E070E00E94730B80E861E06B
:1018A0000E94960A2196C435D10599F7C0E0D0E090
:1018B00083E590E0BE010E94730B8FEF61E00E9410
:1018C000960A2196C630D10599F7C0E0D0E080E0B5
:1018D00090E0BE010E94730B8FEF61E00E94960AB8
:1018E0002196C630D10599F7DF91CF910895E8E9A7
:1018F000F2E090E08191982782E0E53AF807D1F78D
:10190000892F089522E0209398022CE020939902D9
:1019100010929A02906190939B0280939C02109285
:101920009D0210929E0210929F021092A0021092AD
:10193000A1021092A2021092A3021092A402E8E95E
:10194000F2E090E08191982782E0E53AF807D1F73C
:10195000908308950E94820C88E992E00E946307B8
:10196000FC01978180E0208530E0282B392BC901CC
:101970000895EF92FF920F931F93CF93DF937C0113
:1019800008E911E0C62FD0E0CC0FDD1FC00FD11F3A
:101990000AC0F701819191917F010E94AA0CF80180
:1019A000819391938F010C171D0799F78091A803DC
:1019B0008F5F8093A80388E991E0DF91CF911F9119
:1019C0000F91FF90EF900895991B79E004C0991F43
:1019D000961708F0961B881F7A95C9F78095089589
:1019E000A1E21A2EAA1BBB1BFD010DC0AA1FBB1F23
:1019F000EE1FFF1FA217B307E407F50720F0A21B95
:101A0000B30BE40BF50B661F771F881F991F1A9401
:101A100069F760957095809590959B01AC01BD012B
:101A2000CF010895FB019F01E8944230C4F0453294
:101A3000B4F44A3029F497FB1EF4909581959F4F9A
:101A4000642F77270E94430D805D8A330CF0895DF7
:101A50008193CB010097A1F716F45DE251931082B8
:101A6000C9010C94330DDC01FC01672F71917723C0
:101A7000E1F7329704C07C916D9370836291AE1749
:101A8000BF07C8F30895AA1BBB1B51E107C0AA1FDB
:101A9000BB1FA617B70710F0A61BB70B881F991F0F
:101AA0005A95A9F780959095BC01CD010895F894B9
:021AB000FFCF66
:101AB2003100320033003400350030003030303035
:101AC2003A20000D0A003A2000436F6E6E6563747F
:101AD200696F6E206572726F722E20436865636B48
:101AE200206361626C657320616E64207468656E48
:101AF2002072657365742074686520457468657228
:101B02006E757420626F6172642E000D0A002000EF
:101B12000D0A00FFFF830084008500860087009A7B
:041B2200039B03001E
:00000001FF
