:020000020000FC
:100000000102030405060708090A0B0CA0E00C9482
:1000100026000F931F932F933F93DF93CF93188165
:10002000CA952881CA9538810000000000000000B0
:1000300000001A95C9F72A95B9F73A95A9F7CF9113
:10004000DF913F912F911F910F9108950FEF0DBFF9
:10005000C02F00E10EBFD02F0FEF04B900E110E870
:1000600020E830E1889401E005B905B907951F93B0
:100070002F933A9509F430E13F93CBDF3F912F91D5
:060080001F910C943500F5
:00000001FF
